{
  "contractName": "auctionDeal",
  "abi": [
    {
      "inputs": [
        {
          "internalType": "address",
          "name": "_NFT",
          "type": "address"
        },
        {
          "internalType": "uint256",
          "name": "_NFTId",
          "type": "uint256"
        },
        {
          "internalType": "uint256",
          "name": "_startingBid",
          "type": "uint256"
        }
      ],
      "stateMutability": "nonpayable",
      "type": "constructor"
    },
    {
      "inputs": [],
      "name": "NFT",
      "outputs": [
        {
          "internalType": "contract IERC721",
          "name": "",
          "type": "address"
        }
      ],
      "stateMutability": "view",
      "type": "function"
    },
    {
      "inputs": [],
      "name": "NFTId",
      "outputs": [
        {
          "internalType": "uint256",
          "name": "",
          "type": "uint256"
        }
      ],
      "stateMutability": "view",
      "type": "function"
    },
    {
      "inputs": [],
      "name": "auctionDuration",
      "outputs": [
        {
          "internalType": "uint256",
          "name": "",
          "type": "uint256"
        }
      ],
      "stateMutability": "view",
      "type": "function"
    },
    {
      "inputs": [
        {
          "internalType": "address",
          "name": "",
          "type": "address"
        }
      ],
      "name": "bids",
      "outputs": [
        {
          "internalType": "uint256",
          "name": "",
          "type": "uint256"
        }
      ],
      "stateMutability": "view",
      "type": "function"
    },
    {
      "inputs": [],
      "name": "ended",
      "outputs": [
        {
          "internalType": "bool",
          "name": "",
          "type": "bool"
        }
      ],
      "stateMutability": "view",
      "type": "function"
    },
    {
      "inputs": [],
      "name": "highestBidAmount",
      "outputs": [
        {
          "internalType": "uint256",
          "name": "",
          "type": "uint256"
        }
      ],
      "stateMutability": "view",
      "type": "function"
    },
    {
      "inputs": [],
      "name": "highestBidder",
      "outputs": [
        {
          "internalType": "address",
          "name": "",
          "type": "address"
        }
      ],
      "stateMutability": "view",
      "type": "function"
    },
    {
      "inputs": [],
      "name": "seller",
      "outputs": [
        {
          "internalType": "address payable",
          "name": "",
          "type": "address"
        }
      ],
      "stateMutability": "view",
      "type": "function"
    },
    {
      "inputs": [],
      "name": "started",
      "outputs": [
        {
          "internalType": "bool",
          "name": "",
          "type": "bool"
        }
      ],
      "stateMutability": "view",
      "type": "function"
    },
    {
      "inputs": [],
      "name": "start",
      "outputs": [],
      "stateMutability": "nonpayable",
      "type": "function"
    },
    {
      "inputs": [],
      "name": "bid",
      "outputs": [],
      "stateMutability": "payable",
      "type": "function"
    },
    {
      "inputs": [],
      "name": "withdraw",
      "outputs": [],
      "stateMutability": "nonpayable",
      "type": "function"
    },
    {
      "inputs": [],
      "name": "endAuction",
      "outputs": [],
      "stateMutability": "nonpayable",
      "type": "function"
    }
  ],
  "bytecode": "0x60806040523480156200001157600080fd5b50604051620012e8380380620012e8833981810160405281019062000037919062000174565b826000806101000a81548173ffffffffffffffffffffffffffffffffffffffff021916908373ffffffffffffffffffffffffffffffffffffffff1602179055508160018190555033600260006101000a81548173ffffffffffffffffffffffffffffffffffffffff021916908373ffffffffffffffffffffffffffffffffffffffff16021790555080600581905550505050620001d0565b600080fd5b600073ffffffffffffffffffffffffffffffffffffffff82169050919050565b60006200010182620000d4565b9050919050565b6200011381620000f4565b81146200011f57600080fd5b50565b600081519050620001338162000108565b92915050565b6000819050919050565b6200014e8162000139565b81146200015a57600080fd5b50565b6000815190506200016e8162000143565b92915050565b60008060006060848603121562000190576200018f620000cf565b5b6000620001a08682870162000122565b9350506020620001b3868287016200015d565b9250506040620001c6868287016200015d565b9150509250925092565b61110880620001e06000396000f3fe6080604052600436106100c25760003560e01c80633ccfd60b1161007f5780638f9b4874116100595780638f9b48741461022757806391f9015714610252578063be9a65551461027d578063fe67a54b14610294576100c2565b80633ccfd60b146101a857806362ea82db146101bf5780637c0b8de2146101fc576100c2565b806308551a53146100c75780630cbf54c8146100f25780630fe550d11461011d57806312fa6feb146101485780631998aeef146101735780631f2698ab1461017d575b600080fd5b3480156100d357600080fd5b506100dc6102ab565b6040516100e99190610b42565b60405180910390f35b3480156100fe57600080fd5b506101076102d1565b6040516101149190610b76565b60405180910390f35b34801561012957600080fd5b506101326102d7565b60405161013f9190610b76565b60405180910390f35b34801561015457600080fd5b5061015d6102dd565b60405161016a9190610bac565b60405180910390f35b61017b6102f0565b005b34801561018957600080fd5b506101926104e2565b60405161019f9190610bac565b60405180910390f35b3480156101b457600080fd5b506101bd6104f5565b005b3480156101cb57600080fd5b506101e660048036038101906101e19190610c0a565b6105c8565b6040516101f39190610b76565b60405180910390f35b34801561020857600080fd5b506102116105e0565b60405161021e9190610c96565b60405180910390f35b34801561023357600080fd5b5061023c610604565b6040516102499190610b76565b60405180910390f35b34801561025e57600080fd5b5061026761060a565b6040516102749190610cc0565b60405180910390f35b34801561028957600080fd5b50610292610630565b005b3480156102a057600080fd5b506102a96107d3565b005b600260009054906101000a900473ffffffffffffffffffffffffffffffffffffffff1681565b60035481565b60015481565b600460019054906101000a900460ff1681565b600460009054906101000a900460ff1661033f576040517f08c379a000000000000000000000000000000000000000000000000000000000815260040161033690610d38565b60405180910390fd5b6003544210610383576040517f08c379a000000000000000000000000000000000000000000000000000000000815260040161037a90610da4565b60405180910390fd5b60055434116103c7576040517f08c379a00000000000000000000000000000000000000000000000000000000081526004016103be90610e10565b60405180910390fd5b600073ffffffffffffffffffffffffffffffffffffffff16600460029054906101000a900473ffffffffffffffffffffffffffffffffffffffff1673ffffffffffffffffffffffffffffffffffffffff16146104985760055460066000600460029054906101000a900473ffffffffffffffffffffffffffffffffffffffff1673ffffffffffffffffffffffffffffffffffffffff1673ffffffffffffffffffffffffffffffffffffffff16815260200190815260200160002060008282546104909190610e5f565b925050819055505b33600460026101000a81548173ffffffffffffffffffffffffffffffffffffffff021916908373ffffffffffffffffffffffffffffffffffffffff16021790555034600581905550565b600460009054906101000a900460ff1681565b6000600660003373ffffffffffffffffffffffffffffffffffffffff1673ffffffffffffffffffffffffffffffffffffffff1681526020019081526020016000205490506000600660003373ffffffffffffffffffffffffffffffffffffffff1673ffffffffffffffffffffffffffffffffffffffff168152602001908152602001600020819055503373ffffffffffffffffffffffffffffffffffffffff166108fc829081150290604051600060405180830381858888f193505050501580156105c4573d6000803e3d6000fd5b5050565b60066020528060005260406000206000915090505481565b60008054906101000a900473ffffffffffffffffffffffffffffffffffffffff1681565b60055481565b600460029054906101000a900473ffffffffffffffffffffffffffffffffffffffff1681565b600460009054906101000a900460ff1615610680576040517f08c379a000000000000000000000000000000000000000000000000000000000815260040161067790610edf565b60405180910390fd5b600260009054906101000a900473ffffffffffffffffffffffffffffffffffffffff1673ffffffffffffffffffffffffffffffffffffffff163373ffffffffffffffffffffffffffffffffffffffff1614610710576040517f08c379a000000000000000000000000000000000000000000000000000000000815260040161070790610f4b565b60405180910390fd5b60008054906101000a900473ffffffffffffffffffffffffffffffffffffffff1673ffffffffffffffffffffffffffffffffffffffff166323b872dd33306001546040518463ffffffff1660e01b815260040161076f93929190610f6b565b600060405180830381600087803b15801561078957600080fd5b505af115801561079d573d6000803e3d6000fd5b505050506001600460006101000a81548160ff021916908315150217905550620bdd80426107cb9190610e5f565b600381905550565b600460009054906101000a900460ff16610822576040517f08c379a000000000000000000000000000000000000000000000000000000000815260040161081990610d38565b60405180910390fd5b600354421015610867576040517f08c379a000000000000000000000000000000000000000000000000000000000815260040161085e90610fee565b60405180910390fd5b600460019054906101000a900460ff16156108b7576040517f08c379a00000000000000000000000000000000000000000000000000000000081526004016108ae9061105a565b60405180910390fd5b6001600460016101000a81548160ff021916908315150217905550600073ffffffffffffffffffffffffffffffffffffffff16600460029054906101000a900473ffffffffffffffffffffffffffffffffffffffff1673ffffffffffffffffffffffffffffffffffffffff1614610a4b5760008054906101000a900473ffffffffffffffffffffffffffffffffffffffff1673ffffffffffffffffffffffffffffffffffffffff166342842e0e30600460029054906101000a900473ffffffffffffffffffffffffffffffffffffffff166001546040518463ffffffff1660e01b81526004016109a993929190610f6b565b600060405180830381600087803b1580156109c357600080fd5b505af11580156109d7573d6000803e3d6000fd5b50505050600260009054906101000a900473ffffffffffffffffffffffffffffffffffffffff1673ffffffffffffffffffffffffffffffffffffffff166108fc6005549081150290604051600060405180830381858888f19350505050158015610a45573d6000803e3d6000fd5b50610aff565b60008054906101000a900473ffffffffffffffffffffffffffffffffffffffff1673ffffffffffffffffffffffffffffffffffffffff166342842e0e30600260009054906101000a900473ffffffffffffffffffffffffffffffffffffffff166001546040518463ffffffff1660e01b8152600401610acc9392919061109b565b600060405180830381600087803b158015610ae657600080fd5b505af1158015610afa573d6000803e3d6000fd5b505050505b565b600073ffffffffffffffffffffffffffffffffffffffff82169050919050565b6000610b2c82610b01565b9050919050565b610b3c81610b21565b82525050565b6000602082019050610b576000830184610b33565b92915050565b6000819050919050565b610b7081610b5d565b82525050565b6000602082019050610b8b6000830184610b67565b92915050565b60008115159050919050565b610ba681610b91565b82525050565b6000602082019050610bc16000830184610b9d565b92915050565b600080fd5b6000610bd782610b01565b9050919050565b610be781610bcc565b8114610bf257600080fd5b50565b600081359050610c0481610bde565b92915050565b600060208284031215610c2057610c1f610bc7565b5b6000610c2e84828501610bf5565b91505092915050565b6000819050919050565b6000610c5c610c57610c5284610b01565b610c37565b610b01565b9050919050565b6000610c6e82610c41565b9050919050565b6000610c8082610c63565b9050919050565b610c9081610c75565b82525050565b6000602082019050610cab6000830184610c87565b92915050565b610cba81610bcc565b82525050565b6000602082019050610cd56000830184610cb1565b92915050565b600082825260208201905092915050565b7f6e6f742073746172746564000000000000000000000000000000000000000000600082015250565b6000610d22600b83610cdb565b9150610d2d82610cec565b602082019050919050565b60006020820190508181036000830152610d5181610d15565b9050919050565b7f616c726561647920656e64656400000000000000000000000000000000000000600082015250565b6000610d8e600d83610cdb565b9150610d9982610d58565b602082019050919050565b60006020820190508181036000830152610dbd81610d81565b9050919050565b7f696e63726561736520616d6f756e740000000000000000000000000000000000600082015250565b6000610dfa600f83610cdb565b9150610e0582610dc4565b602082019050919050565b60006020820190508181036000830152610e2981610ded565b9050919050565b7f4e487b7100000000000000000000000000000000000000000000000000000000600052601160045260246000fd5b6000610e6a82610b5d565b9150610e7583610b5d565b9250828201905080821115610e8d57610e8c610e30565b5b92915050565b7f61756374696f6e20616c72656164792073746172746564000000000000000000600082015250565b6000610ec9601783610cdb565b9150610ed482610e93565b602082019050919050565b60006020820190508181036000830152610ef881610ebc565b9050919050565b7f6e6f742072696768742073656c6c657200000000000000000000000000000000600082015250565b6000610f35601083610cdb565b9150610f4082610eff565b602082019050919050565b60006020820190508181036000830152610f6481610f28565b9050919050565b6000606082019050610f806000830186610cb1565b610f8d6020830185610cb1565b610f9a6040830184610b67565b949350505050565b7f61756374696f6e207374696c6c206f6e676f696e670000000000000000000000600082015250565b6000610fd8601583610cdb565b9150610fe382610fa2565b602082019050919050565b6000602082019050818103600083015261100781610fcb565b9050919050565b7f6974277320656e64656420616c72656164790000000000000000000000000000600082015250565b6000611044601283610cdb565b915061104f8261100e565b602082019050919050565b6000602082019050818103600083015261107381611037565b9050919050565b600061108582610c63565b9050919050565b6110958161107a565b82525050565b60006060820190506110b06000830186610cb1565b6110bd602083018561108c565b6110ca6040830184610b67565b94935050505056fea2646970667358221220ea6198eec2b278bcfcc7ad9a6df3b776afa71e4b600f6d2c887a7ef6d5c17cc564736f6c63430008110033",
  "immutableReferences": {},
  "source": "pragma solidity 0.8.17;\n\ninterface IERC721 {\n    function safeTransferFrom(address from, address to, uint tokenId) external;\n\n    function transferFrom(address, address, uint) external;\n}\n\n\ncontract auctionDeal{\n\n   IERC721 public NFT;\n   uint public NFTId;\n\n    //struct Auction{\n        address payable public seller;\n        uint public auctionDuration;\n        bool public  started;\n        bool public  ended;\n    \n      //Auction[] public auction;\n\n        \n            address public highestBidder;\n            uint public  highestBidAmount;\n            mapping(address => uint) public bids;\n      \n\n      constructor(address _NFT, uint _NFTId, uint _startingBid) {\n          NFT = IERC721(_NFT);\n          NFTId = _NFTId;\n\n          seller = payable(msg.sender);\n          highestBidAmount = _startingBid;\n      }\n\n\n    function start() external{\n        require(!started, \"auction already started\");\n        require(msg.sender == seller, \"not right seller\");\n\n        NFT.transferFrom(msg.sender, address(this), NFTId);\n        started = true;\n       auctionDuration = block.timestamp + 9 days;\n\n    }\n    \n    function bid() external payable{\n        require(started, \"not started\");\n        require(block.timestamp < auctionDuration, \"already ended\");\n        require(msg.value > highestBidAmount, \"increase amount\");\n\n           if(highestBidder != address(0)) {\n              bids[highestBidder] += highestBidAmount;\n           }\n\n          highestBidder = msg.sender;\n          highestBidAmount = msg.value;\n    }\n\n\n    function withdraw() external{\n        uint bal = bids[msg.sender];\n       bids[msg.sender] = 0;\n        payable(msg.sender).transfer(bal);\n    }\n\n\nfunction endAuction() external{\n    require(started, \"not started\");\n    require(block.timestamp >= auctionDuration, \"auction still ongoing\");\n    require(!ended, \"it's ended already\");\n\n  ended = true;\n    if (highestBidder != address(0)) {\n        NFT.safeTransferFrom(address(this), highestBidder, NFTId);\n       seller.transfer(highestBidAmount);\n    } else {\n        NFT.safeTransferFrom(address(this), seller, NFTId);\n    }\n}\n\n\n}",
  "sourcePath": "/Users/phaxsam/Hash/Solidity-By-Example-Series/contracts/NFT Auction.sol",
  "compiler": {
    "name": "solc",
    "version": "0.8.17+commit.8df45f5f.Emscripten.clang"
  },
  "schemaVersion": "3.4.11",
  "updatedAt": "2023-01-03T12:55:52.714Z",
  "devdoc": {
    "kind": "dev",
    "methods": {},
    "version": 1
  },
  "userdoc": {
    "kind": "user",
    "methods": {},
    "version": 1
  }
}